{
    "_format": "hh-sol-artifact-1",
    "contractName": "AliveCore",
    "sourceName": "contracts/ALiveCore.sol",
    "abi": [
        {
            "inputs": [],
            "stateMutability": "nonpayable",
            "type": "constructor"
        },
        {
            "anonymous": false,
            "inputs": [
                {
                    "indexed": true,
                    "internalType": "bytes32",
                    "name": "role",
                    "type": "bytes32"
                },
                {
                    "indexed": true,
                    "internalType": "bytes32",
                    "name": "previousAdminRole",
                    "type": "bytes32"
                },
                {
                    "indexed": true,
                    "internalType": "bytes32",
                    "name": "newAdminRole",
                    "type": "bytes32"
                }
            ],
            "name": "RoleAdminChanged",
            "type": "event"
        },
        {
            "anonymous": false,
            "inputs": [
                {
                    "indexed": true,
                    "internalType": "bytes32",
                    "name": "role",
                    "type": "bytes32"
                },
                {
                    "indexed": true,
                    "internalType": "address",
                    "name": "account",
                    "type": "address"
                },
                {
                    "indexed": true,
                    "internalType": "address",
                    "name": "sender",
                    "type": "address"
                }
            ],
            "name": "RoleGranted",
            "type": "event"
        },
        {
            "anonymous": false,
            "inputs": [
                {
                    "indexed": true,
                    "internalType": "bytes32",
                    "name": "role",
                    "type": "bytes32"
                },
                {
                    "indexed": true,
                    "internalType": "address",
                    "name": "account",
                    "type": "address"
                },
                {
                    "indexed": true,
                    "internalType": "address",
                    "name": "sender",
                    "type": "address"
                }
            ],
            "name": "RoleRevoked",
            "type": "event"
        },
        {
            "inputs": [],
            "name": "DEFAULT_ADMIN_ROLE",
            "outputs": [
                {
                    "internalType": "bytes32",
                    "name": "",
                    "type": "bytes32"
                }
            ],
            "stateMutability": "view",
            "type": "function"
        },
        {
            "inputs": [],
            "name": "createBand",
            "outputs": [],
            "stateMutability": "nonpayable",
            "type": "function"
        },
        {
            "inputs": [
                {
                    "internalType": "bytes32",
                    "name": "role",
                    "type": "bytes32"
                }
            ],
            "name": "getRoleAdmin",
            "outputs": [
                {
                    "internalType": "bytes32",
                    "name": "",
                    "type": "bytes32"
                }
            ],
            "stateMutability": "view",
            "type": "function"
        },
        {
            "inputs": [
                {
                    "internalType": "address",
                    "name": "_to",
                    "type": "address"
                }
            ],
            "name": "giveGovernanceRole",
            "outputs": [],
            "stateMutability": "nonpayable",
            "type": "function"
        },
        {
            "inputs": [
                {
                    "internalType": "bytes32",
                    "name": "role",
                    "type": "bytes32"
                },
                {
                    "internalType": "address",
                    "name": "account",
                    "type": "address"
                }
            ],
            "name": "grantRole",
            "outputs": [],
            "stateMutability": "nonpayable",
            "type": "function"
        },
        {
            "inputs": [
                {
                    "internalType": "bytes32",
                    "name": "role",
                    "type": "bytes32"
                },
                {
                    "internalType": "address",
                    "name": "account",
                    "type": "address"
                }
            ],
            "name": "hasRole",
            "outputs": [
                {
                    "internalType": "bool",
                    "name": "",
                    "type": "bool"
                }
            ],
            "stateMutability": "view",
            "type": "function"
        },
        {
            "inputs": [
                {
                    "internalType": "bytes32",
                    "name": "role",
                    "type": "bytes32"
                },
                {
                    "internalType": "address",
                    "name": "account",
                    "type": "address"
                }
            ],
            "name": "renounceRole",
            "outputs": [],
            "stateMutability": "nonpayable",
            "type": "function"
        },
        {
            "inputs": [
                {
                    "internalType": "address",
                    "name": "_to",
                    "type": "address"
                }
            ],
            "name": "retriveGovernanceRole",
            "outputs": [],
            "stateMutability": "nonpayable",
            "type": "function"
        },
        {
            "inputs": [],
            "name": "returnAllBands",
            "outputs": [
                {
                    "components": [
                        {
                            "internalType": "uint256",
                            "name": "bandId",
                            "type": "uint256"
                        },
                        {
                            "internalType": "address",
                            "name": "bandAddress",
                            "type": "address"
                        },
                        {
                            "internalType": "address",
                            "name": "deployer",
                            "type": "address"
                        }
                    ],
                    "internalType": "struct AliveCore.Band[]",
                    "name": "",
                    "type": "tuple[]"
                }
            ],
            "stateMutability": "view",
            "type": "function"
        },
        {
            "inputs": [
                {
                    "internalType": "bytes32",
                    "name": "role",
                    "type": "bytes32"
                },
                {
                    "internalType": "address",
                    "name": "account",
                    "type": "address"
                }
            ],
            "name": "revokeRole",
            "outputs": [],
            "stateMutability": "nonpayable",
            "type": "function"
        },
        {
            "inputs": [
                {
                    "internalType": "bytes4",
                    "name": "interfaceId",
                    "type": "bytes4"
                }
            ],
            "name": "supportsInterface",
            "outputs": [
                {
                    "internalType": "bool",
                    "name": "",
                    "type": "bool"
                }
            ],
            "stateMutability": "view",
            "type": "function"
        }
    ],
    "bytecode": "0x60806040523480156200001157600080fd5b50620000366000801b6200002a6200007d60201b60201c565b6200008560201b60201c565b620000777f71840dc4906352362b0cdaf79870196c8e42acafade72d5d5a6d59291253ceb16200006b6200007d60201b60201c565b6200008560201b60201c565b620001e0565b600033905090565b6200009782826200017660201b60201c565b6200017257600160008084815260200190815260200160002060000160008373ffffffffffffffffffffffffffffffffffffffff1673ffffffffffffffffffffffffffffffffffffffff16815260200190815260200160002060006101000a81548160ff021916908315150217905550620001176200007d60201b60201c565b73ffffffffffffffffffffffffffffffffffffffff168173ffffffffffffffffffffffffffffffffffffffff16837f2f8788117e7eff1d82e926ec794901d17c78024a50270940304540a733656f0d60405160405180910390a45b5050565b600080600084815260200190815260200160002060000160008373ffffffffffffffffffffffffffffffffffffffff1673ffffffffffffffffffffffffffffffffffffffff16815260200190815260200160002060009054906101000a900460ff16905092915050565b6153ba80620001f06000396000f3fe60806040523480156200001157600080fd5b5060043610620000b85760003560e01c806347ac9b92116200007b57806347ac9b9214620001895780634d40c34514620001ab57806391d1485414620001cb578063a217fddf1462000201578063ac0504a21462000223578063d547741f146200022f57620000b8565b806301ffc9a714620000bd578063248a9ca314620000f3578063271e611a14620001295780632f2ff15d146200014957806336568abe1462000169575b600080fd5b620000db6004803603810190620000d5919062001017565b6200024f565b604051620000ea91906200133d565b60405180910390f35b6200011160048036038101906200010b919062000faa565b620002cc565b6040516200012091906200135a565b60405180910390f35b62000147600480360381019062000141919062000f7e565b620002eb565b005b62000167600480360381019062000161919062000fd6565b6200036b565b005b62000187600480360381019062000181919062000fd6565b6200039c565b005b6200019362000426565b604051620001a2919062001319565b60405180910390f35b620001c96004803603810190620001c3919062000f7e565b6200053d565b005b620001e96004803603810190620001e3919062000fd6565b620005f3565b604051620001f891906200133d565b60405180910390f35b6200020b6200065d565b6040516200021a91906200135a565b60405180910390f35b6200022d62000664565b005b6200024d600480360381019062000247919062000fd6565b620008b9565b005b60007f7965db0b000000000000000000000000000000000000000000000000000000007bffffffffffffffffffffffffffffffffffffffffffffffffffffffff1916827bffffffffffffffffffffffffffffffffffffffffffffffffffffffff19161480620002c55750620002c482620008ea565b5b9050919050565b6000806000838152602001908152602001600020600101549050919050565b620002fa6000801b33620005f3565b6200033c576040517f08c379a00000000000000000000000000000000000000000000000000000000081526004016200033390620013df565b60405180910390fd5b620003687f71840dc4906352362b0cdaf79870196c8e42acafade72d5d5a6d59291253ceb18262000954565b50565b6200037682620002cc565b6200038b816200038562000a39565b62000a41565b62000397838362000954565b505050565b620003a662000a39565b73ffffffffffffffffffffffffffffffffffffffff168173ffffffffffffffffffffffffffffffffffffffff161462000416576040517f08c379a00000000000000000000000000000000000000000000000000000000081526004016200040d9062001401565b60405180910390fd5b62000422828262000ae9565b5050565b60606002805480602002602001604051908101604052809291908181526020016000905b82821015620005345783829060005260206000209060030201604051806060016040529081600082015481526020016001820160009054906101000a900473ffffffffffffffffffffffffffffffffffffffff1673ffffffffffffffffffffffffffffffffffffffff1673ffffffffffffffffffffffffffffffffffffffff1681526020016002820160009054906101000a900473ffffffffffffffffffffffffffffffffffffffff1673ffffffffffffffffffffffffffffffffffffffff1673ffffffffffffffffffffffffffffffffffffffff1681525050815260200190600101906200044a565b50505050905090565b6200054c6000801b33620005f3565b6200055657600080fd5b620005827f71840dc4906352362b0cdaf79870196c8e42acafade72d5d5a6d59291253ceb182620005f3565b620005c4576040517f08c379a0000000000000000000000000000000000000000000000000000000008152600401620005bb90620013bd565b60405180910390fd5b620005f07f71840dc4906352362b0cdaf79870196c8e42acafade72d5d5a6d59291253ceb18262000ae9565b50565b600080600084815260200190815260200160002060000160008373ffffffffffffffffffffffffffffffffffffffff1673ffffffffffffffffffffffffffffffffffffffff16815260200190815260200160002060009054906101000a900460ff16905092915050565b6000801b81565b600060016002805490506200067a9190620014b0565b9050600081336040516200068e9062000ede565b6200069b92919062001423565b604051809103906000f080158015620006b8573d6000803e3d6000fd5b509050620006c562000eec565b8281600001818152505081816020019073ffffffffffffffffffffffffffffffffffffffff16908173ffffffffffffffffffffffffffffffffffffffff168152505033816040019073ffffffffffffffffffffffffffffffffffffffff16908173ffffffffffffffffffffffffffffffffffffffff168152505060028190806001815401808255809150506001900390600052602060002090600302016000909190919091506000820151816000015560208201518160010160006101000a81548173ffffffffffffffffffffffffffffffffffffffff021916908373ffffffffffffffffffffffffffffffffffffffff16021790555060408201518160020160006101000a81548173ffffffffffffffffffffffffffffffffffffffff021916908373ffffffffffffffffffffffffffffffffffffffff160217905550505080600360008581526020019081526020016000206000820151816000015560208201518160010160006101000a81548173ffffffffffffffffffffffffffffffffffffffff021916908373ffffffffffffffffffffffffffffffffffffffff16021790555060408201518160020160006101000a81548173ffffffffffffffffffffffffffffffffffffffff021916908373ffffffffffffffffffffffffffffffffffffffff160217905550905050505050565b620008c482620002cc565b620008d981620008d362000a39565b62000a41565b620008e5838362000ae9565b505050565b60007f01ffc9a7000000000000000000000000000000000000000000000000000000007bffffffffffffffffffffffffffffffffffffffffffffffffffffffff1916827bffffffffffffffffffffffffffffffffffffffffffffffffffffffff1916149050919050565b620009608282620005f3565b62000a3557600160008084815260200190815260200160002060000160008373ffffffffffffffffffffffffffffffffffffffff1673ffffffffffffffffffffffffffffffffffffffff16815260200190815260200160002060006101000a81548160ff021916908315150217905550620009da62000a39565b73ffffffffffffffffffffffffffffffffffffffff168173ffffffffffffffffffffffffffffffffffffffff16837f2f8788117e7eff1d82e926ec794901d17c78024a50270940304540a733656f0d60405160405180910390a45b5050565b600033905090565b62000a4d8282620005f3565b62000ae55762000a758173ffffffffffffffffffffffffffffffffffffffff16601462000bcf565b62000a858360001c602062000bcf565b60405160200162000a98929190620012d7565b6040516020818303038152906040526040517f08c379a000000000000000000000000000000000000000000000000000000000815260040162000adc919062001377565b60405180910390fd5b5050565b62000af58282620005f3565b1562000bcb57600080600084815260200190815260200160002060000160008373ffffffffffffffffffffffffffffffffffffffff1673ffffffffffffffffffffffffffffffffffffffff16815260200190815260200160002060006101000a81548160ff02191690831515021790555062000b7062000a39565b73ffffffffffffffffffffffffffffffffffffffff168173ffffffffffffffffffffffffffffffffffffffff16837ff6391f5c32d9c69d2a47ea670b442974b53935d1edc7fd64eb21e047a839171b60405160405180910390a45b5050565b60606000600283600262000be491906200150d565b62000bf09190620014b0565b67ffffffffffffffff81111562000c30577f4e487b7100000000000000000000000000000000000000000000000000000000600052604160045260246000fd5b6040519080825280601f01601f19166020018201604052801562000c635781602001600182028036833780820191505090505b5090507f30000000000000000000000000000000000000000000000000000000000000008160008151811062000cc2577f4e487b7100000000000000000000000000000000000000000000000000000000600052603260045260246000fd5b60200101907effffffffffffffffffffffffffffffffffffffffffffffffffffffffffffff1916908160001a9053507f78000000000000000000000000000000000000000000000000000000000000008160018151811062000d4d577f4e487b7100000000000000000000000000000000000000000000000000000000600052603260045260246000fd5b60200101907effffffffffffffffffffffffffffffffffffffffffffffffffffffffffffff1916908160001a9053506000600184600262000d8f91906200150d565b62000d9b9190620014b0565b90505b600181111562000e8d577f3031323334353637383961626364656600000000000000000000000000000000600f86166010811062000e05577f4e487b7100000000000000000000000000000000000000000000000000000000600052603260045260246000fd5b1a60f81b82828151811062000e43577f4e487b7100000000000000000000000000000000000000000000000000000000600052603260045260246000fd5b60200101907effffffffffffffffffffffffffffffffffffffffffffffffffffffffffffff1916908160001a905350600485901c94508062000e859062001624565b905062000d9e565b506000841462000ed4576040517f08c379a000000000000000000000000000000000000000000000000000000000815260040162000ecb906200139b565b60405180910390fd5b8091505092915050565b613b8780620017fe83390190565b604051806060016040528060008152602001600073ffffffffffffffffffffffffffffffffffffffff168152602001600073ffffffffffffffffffffffffffffffffffffffff1681525090565b60008135905062000f4a81620017af565b92915050565b60008135905062000f6181620017c9565b92915050565b60008135905062000f7881620017e3565b92915050565b60006020828403121562000f9157600080fd5b600062000fa18482850162000f39565b91505092915050565b60006020828403121562000fbd57600080fd5b600062000fcd8482850162000f50565b91505092915050565b6000806040838503121562000fea57600080fd5b600062000ffa8582860162000f50565b92505060206200100d8582860162000f39565b9150509250929050565b6000602082840312156200102a57600080fd5b60006200103a8482850162000f67565b91505092915050565b60006200105183836200126d565b60608301905092915050565b62001068816200156e565b82525050565b62001079816200156e565b82525050565b60006200108c8262001460565b62001098818562001483565b9350620010a58362001450565b8060005b83811015620010dc578151620010c0888262001043565b9750620010cd8362001476565b925050600181019050620010a9565b5085935050505092915050565b620010f48162001582565b82525050565b62001105816200158e565b82525050565b600062001118826200146b565b62001124818562001494565b935062001136818560208601620015ee565b620011418162001682565b840191505092915050565b600062001159826200146b565b620011658185620014a5565b935062001177818560208601620015ee565b80840191505092915050565b60006200119260208362001494565b91506200119f8262001693565b602082019050919050565b6000620011b9601f8362001494565b9150620011c682620016bc565b602082019050919050565b6000620011e0601a8362001494565b9150620011ed82620016e5565b602082019050919050565b600062001207601783620014a5565b915062001214826200170e565b601782019050919050565b60006200122e601183620014a5565b91506200123b8262001737565b601182019050919050565b600062001255602f8362001494565b9150620012628262001760565b604082019050919050565b606082016000820151620012856000850182620012b5565b5060208201516200129a60208501826200105d565b506040820151620012af60408501826200105d565b50505050565b620012c081620015e4565b82525050565b620012d181620015e4565b82525050565b6000620012e482620011f8565b9150620012f282856200114c565b9150620012ff826200121f565b91506200130d82846200114c565b91508190509392505050565b600060208201905081810360008301526200133581846200107f565b905092915050565b6000602082019050620013546000830184620010e9565b92915050565b6000602082019050620013716000830184620010fa565b92915050565b600060208201905081810360008301526200139381846200110b565b905092915050565b60006020820190508181036000830152620013b68162001183565b9050919050565b60006020820190508181036000830152620013d881620011aa565b9050919050565b60006020820190508181036000830152620013fa81620011d1565b9050919050565b600060208201905081810360008301526200141c8162001246565b9050919050565b60006040820190506200143a6000830185620012c6565b6200144960208301846200106e565b9392505050565b6000819050602082019050919050565b600081519050919050565b600081519050919050565b6000602082019050919050565b600082825260208201905092915050565b600082825260208201905092915050565b600081905092915050565b6000620014bd82620015e4565b9150620014ca83620015e4565b9250827fffffffffffffffffffffffffffffffffffffffffffffffffffffffffffffffff0382111562001502576200150162001653565b5b828201905092915050565b60006200151a82620015e4565b91506200152783620015e4565b9250817fffffffffffffffffffffffffffffffffffffffffffffffffffffffffffffffff048311821515161562001563576200156262001653565b5b828202905092915050565b60006200157b82620015c4565b9050919050565b60008115159050919050565b6000819050919050565b60007fffffffff0000000000000000000000000000000000000000000000000000000082169050919050565b600073ffffffffffffffffffffffffffffffffffffffff82169050919050565b6000819050919050565b60005b838110156200160e578082015181840152602081019050620015f1565b838111156200161e576000848401525b50505050565b60006200163182620015e4565b9150600082141562001648576200164762001653565b5b600182039050919050565b7f4e487b7100000000000000000000000000000000000000000000000000000000600052601160045260246000fd5b6000601f19601f8301169050919050565b7f537472696e67733a20686578206c656e67746820696e73756666696369656e74600082015250565b7f616464726573737320646f6573206e6f7420686176652074686520726f6c6500600082015250565b7f6f6e6c792041646d696e2063616e206772616e7420726f6c6573000000000000600082015250565b7f416363657373436f6e74726f6c3a206163636f756e7420000000000000000000600082015250565b7f206973206d697373696e6720726f6c6520000000000000000000000000000000600082015250565b7f416363657373436f6e74726f6c3a2063616e206f6e6c792072656e6f756e636560008201527f20726f6c657320666f722073656c660000000000000000000000000000000000602082015250565b620017ba816200156e565b8114620017c657600080fd5b50565b620017d4816200158e565b8114620017e057600080fd5b50565b620017ee8162001598565b8114620017fa57600080fd5b5056fe6080604052737fa750874279f4235468753db27360315ba27136600860006101000a81548173ffffffffffffffffffffffffffffffffffffffff021916908373ffffffffffffffffffffffffffffffffffffffff160217905550730dd68c06af920ca069cdc27d05aa9eb65f85990a600960006101000a81548173ffffffffffffffffffffffffffffffffffffffff021916908373ffffffffffffffffffffffffffffffffffffffff160217905550620186a0600960146101000a81548163ffffffff021916908363ffffffff160217905550348015620000df57600080fd5b5060405162003b8738038062003b87833981810160405281019062000105919062000430565b6200012562000119620001da60201b60201c565b620001e260201b60201c565b81600481905550620001416000801b82620002a660201b60201c565b62000151620001da60201b60201c565b600560006101000a81548173ffffffffffffffffffffffffffffffffffffffff021916908373ffffffffffffffffffffffffffffffffffffffff160217905550620001d27f71840dc4906352362b0cdaf79870196c8e42acafade72d5d5a6d59291253ceb1620001c6620001da60201b60201c565b620002a660201b60201c565b5050620004e3565b600033905090565b60008060009054906101000a900473ffffffffffffffffffffffffffffffffffffffff169050816000806101000a81548173ffffffffffffffffffffffffffffffffffffffff021916908373ffffffffffffffffffffffffffffffffffffffff1602179055508173ffffffffffffffffffffffffffffffffffffffff168173ffffffffffffffffffffffffffffffffffffffff167f8be0079c531659141344cd1fd0a4f28419497f9722a3daafe3b4186f6b6457e060405160405180910390a35050565b620002b882826200039760201b60201c565b6200039357600180600084815260200190815260200160002060000160008373ffffffffffffffffffffffffffffffffffffffff1673ffffffffffffffffffffffffffffffffffffffff16815260200190815260200160002060006101000a81548160ff02191690831515021790555062000338620001da60201b60201c565b73ffffffffffffffffffffffffffffffffffffffff168173ffffffffffffffffffffffffffffffffffffffff16837f2f8788117e7eff1d82e926ec794901d17c78024a50270940304540a733656f0d60405160405180910390a45b5050565b60006001600084815260200190815260200160002060000160008373ffffffffffffffffffffffffffffffffffffffff1673ffffffffffffffffffffffffffffffffffffffff16815260200190815260200160002060009054906101000a900460ff16905092915050565b6000815190506200041381620004af565b92915050565b6000815190506200042a81620004c9565b92915050565b600080604083850312156200044457600080fd5b6000620004548582860162000419565b9250506020620004678582860162000402565b9150509250929050565b60006200047e8262000485565b9050919050565b600073ffffffffffffffffffffffffffffffffffffffff82169050919050565b6000819050919050565b620004ba8162000471565b8114620004c657600080fd5b50565b620004d481620004a5565b8114620004e057600080fd5b50565b61369480620004f36000396000f3fe608060405234801561001057600080fd5b50600436106101c45760003560e01c80638da5cb5b116100f9578063c9c46b3b11610097578063e970a2c411610071578063e970a2c41461050a578063f2fde38b1461053a578063f8b4a22f14610556578063fdcb387c14610586576101c4565b8063c9c46b3b146104a0578063ca6d56dc146104be578063d547741f146104ee576101c4565b8063a217fddf116100d3578063a217fddf14610400578063a6b46a6f1461041e578063b816f51314610452578063b8fe4b8914610470576101c4565b80638da5cb5b146103a857806391d14854146103c6578063968ea468146103f6576101c4565b806336568abe116101665780634d40c345116101405780634d40c345146103365780636505e17e14610352578063715018a61461038257806374c8ba471461038c576101c4565b806336568abe146102e05780634863ba17146102fc5780634d043eea14610318576101c4565b8063248a9ca3116101a2578063248a9ca31461025a578063271e611a1461028a57806329ef6862146102a65780632f2ff15d146102c4576101c4565b806301ffc9a7146101c95780630b1ca49a146101f95780631f226de514610229575b600080fd5b6101e360048036038101906101de9190612701565b6105a2565b6040516101f09190612dcc565b60405180910390f35b610213600480360381019061020e919061254f565b61061c565b6040516102209190612dcc565b60405180910390f35b610243600480360381019061023e9190612618565b61090b565b604051610251929190612c86565b60405180910390f35b610274600480360381019061026f919061269c565b610ced565b6040516102819190612de7565b60405180910390f35b6102a4600480360381019061029f919061254f565b610d0d565b005b6102ae610d86565b6040516102bb9190612daa565b60405180910390f35b6102de60048036038101906102d991906126c5565b610efb565b005b6102fa60048036038101906102f591906126c5565b610f24565b005b6103166004803603810190610311919061254f565b610fa7565b005b610320611067565b60405161032d9190612f3f565b60405180910390f35b610350600480360381019061034b919061254f565b61106d565b005b61036c6004803603810190610367919061272a565b611119565b6040516103799190612c6b565b60405180910390f35b61038a611158565b005b6103a660048036038101906103a1919061254f565b6111e0565b005b6103b0611224565b6040516103bd9190612c6b565b60405180910390f35b6103e060048036038101906103db91906126c5565b61124d565b6040516103ed9190612dcc565b60405180910390f35b6103fe6112b8565b005b61040861134d565b6040516104159190612de7565b60405180910390f35b6104386004803603810190610433919061272a565b611354565b604051610449959493929190612f5a565b60405180910390f35b61045a6113fa565b6040516104679190612c6b565b60405180910390f35b61048a6004803603810190610485919061272a565b611420565b6040516104979190612c6b565b60405180910390f35b6104a861145f565b6040516104b59190612c6b565b60405180910390f35b6104d860048036038101906104d3919061254f565b611485565b6040516104e59190612dcc565b60405180910390f35b610508600480360381019061050391906126c5565b6115d5565b005b610524600480360381019061051f919061272a565b6115fe565b6040516105319190612f24565b60405180910390f35b610554600480360381019061054f919061254f565b611741565b005b610570600480360381019061056b91906125a1565b611839565b60405161057d9190612c6b565b60405180910390f35b6105a0600480360381019061059b919061254f565b611a83565b005b60007f7965db0b000000000000000000000000000000000000000000000000000000007bffffffffffffffffffffffffffffffffffffffffffffffffffffffff1916827bffffffffffffffffffffffffffffffffffffffffffffffffffffffff19161480610615575061061482611b0e565b5b9050919050565b60006106487f71840dc4906352362b0cdaf79870196c8e42acafade72d5d5a6d59291253ceb13361124d565b8061065c575061065b6000801b3361124d565b5b61066557600080fd5b6000600760008473ffffffffffffffffffffffffffffffffffffffff1673ffffffffffffffffffffffffffffffffffffffff1681526020019081526020016000205414156106e8576040517f08c379a00000000000000000000000000000000000000000000000000000000081526004016106df90612e84565b60405180910390fd5b60006001600760008573ffffffffffffffffffffffffffffffffffffffff1673ffffffffffffffffffffffffffffffffffffffff1681526020019081526020016000205461073691906131ae565b905060005b6006805490508110156108bb57600660018361075791906130fe565b8154811061078e577f4e487b7100000000000000000000000000000000000000000000000000000000600052603260045260246000fd5b9060005260206000200160009054906101000a900473ffffffffffffffffffffffffffffffffffffffff16600683815481106107f3577f4e487b7100000000000000000000000000000000000000000000000000000000600052603260045260246000fd5b9060005260206000200160006101000a81548173ffffffffffffffffffffffffffffffffffffffff021916908373ffffffffffffffffffffffffffffffffffffffff1602179055506006805480610873577f4e487b7100000000000000000000000000000000000000000000000000000000600052603160045260246000fd5b6001900381819060005260206000200160006101000a81549073ffffffffffffffffffffffffffffffffffffffff0219169055905580806108b39061335c565b91505061073b565b506000600760008573ffffffffffffffffffffffffffffffffffffffff1673ffffffffffffffffffffffffffffffffffffffff168152602001908152602001600020819055506001915050919050565b6000806109387f71840dc4906352362b0cdaf79870196c8e42acafade72d5d5a6d59291253ceb13361124d565b8061094c575061094b6000801b3361124d565b5b61095557600080fd5b6207a1208363ffffffff16106109a0576040517f08c379a000000000000000000000000000000000000000000000000000000000815260040161099790612ec4565b60405180910390fd5b6000600860009054906101000a900473ffffffffffffffffffffffffffffffffffffffff1673ffffffffffffffffffffffffffffffffffffffff16637601f7828888886000806040518663ffffffff1660e01b8152600401610a06959493929190612d02565b602060405180830381600087803b158015610a2057600080fd5b505af1158015610a34573d6000803e3d6000fd5b505050506040513d601f19601f82011682018060405250810190610a589190612578565b905060608181600081518110610a97577f4e487b7100000000000000000000000000000000000000000000000000000000600052603260045260246000fd5b602002602001019073ffffffffffffffffffffffffffffffffffffffff16908173ffffffffffffffffffffffffffffffffffffffff1681525050600960009054906101000a900473ffffffffffffffffffffffffffffffffffffffff1681600181518110610b2e577f4e487b7100000000000000000000000000000000000000000000000000000000600052603260045260246000fd5b602002602001019073ffffffffffffffffffffffffffffffffffffffff16908173ffffffffffffffffffffffffffffffffffffffff1681525050606085620f4240610b7991906131e2565b81600081518110610bb3577f4e487b7100000000000000000000000000000000000000000000000000000000600052603260045260246000fd5b602002602001019063ffffffff16908163ffffffff16815250508581600181518110610c08577f4e487b7100000000000000000000000000000000000000000000000000000000600052603260045260246000fd5b602002602001019063ffffffff16908163ffffffff16815250506000600860009054906101000a900473ffffffffffffffffffffffffffffffffffffffff1673ffffffffffffffffffffffffffffffffffffffff16637601f78284846000806040518563ffffffff1660e01b8152600401610c869493929190612d57565b602060405180830381600087803b158015610ca057600080fd5b505af1158015610cb4573d6000803e3d6000fd5b505050506040513d601f19601f82011682018060405250810190610cd89190612578565b90508084955095505050505094509492505050565b600060016000838152602001908152602001600020600101549050919050565b610d1a6000801b3361124d565b610d59576040517f08c379a0000000000000000000000000000000000000000000000000000000008152600401610d5090612ee4565b60405180910390fd5b610d837f71840dc4906352362b0cdaf79870196c8e42acafade72d5d5a6d59291253ceb182611b78565b50565b6060600a805480602002602001604051908101604052809291908181526020016000905b82821015610ef257838290600052602060002090600502016040518060a0016040529081600082015481526020016001820160009054906101000a900473ffffffffffffffffffffffffffffffffffffffff1673ffffffffffffffffffffffffffffffffffffffff1673ffffffffffffffffffffffffffffffffffffffff1681526020016002820160009054906101000a900473ffffffffffffffffffffffffffffffffffffffff1673ffffffffffffffffffffffffffffffffffffffff1673ffffffffffffffffffffffffffffffffffffffff1681526020016003820160009054906101000a900473ffffffffffffffffffffffffffffffffffffffff1673ffffffffffffffffffffffffffffffffffffffff1673ffffffffffffffffffffffffffffffffffffffff16815260200160048201548152505081526020019060010190610daa565b50505050905090565b610f0482610ced565b610f1581610f10611c58565b611c60565b610f1f8383611b78565b505050565b610f2c611c58565b73ffffffffffffffffffffffffffffffffffffffff168173ffffffffffffffffffffffffffffffffffffffff1614610f99576040517f08c379a0000000000000000000000000000000000000000000000000000000008152600401610f9090612f04565b60405180910390fd5b610fa38282611cfd565b5050565b610faf611c58565b73ffffffffffffffffffffffffffffffffffffffff16610fcd611224565b73ffffffffffffffffffffffffffffffffffffffff1614611023576040517f08c379a000000000000000000000000000000000000000000000000000000000815260040161101a90612ea4565b60405180910390fd5b80600360006101000a81548173ffffffffffffffffffffffffffffffffffffffff021916908373ffffffffffffffffffffffffffffffffffffffff16021790555050565b60045481565b61107a6000801b3361124d565b61108357600080fd5b6110ad7f71840dc4906352362b0cdaf79870196c8e42acafade72d5d5a6d59291253ceb18261124d565b6110ec576040517f08c379a00000000000000000000000000000000000000000000000000000000081526004016110e390612e64565b60405180910390fd5b6111167f71840dc4906352362b0cdaf79870196c8e42acafade72d5d5a6d59291253ceb182611cfd565b50565b6006818154811061112957600080fd5b906000526020600020016000915054906101000a900473ffffffffffffffffffffffffffffffffffffffff1681565b611160611c58565b73ffffffffffffffffffffffffffffffffffffffff1661117e611224565b73ffffffffffffffffffffffffffffffffffffffff16146111d4576040517f08c379a00000000000000000000000000000000000000000000000000000000081526004016111cb90612ea4565b60405180910390fd5b6111de6000611ddf565b565b80600360006101000a81548173ffffffffffffffffffffffffffffffffffffffff021916908373ffffffffffffffffffffffffffffffffffffffff16021790555050565b60008060009054906101000a900473ffffffffffffffffffffffffffffffffffffffff16905090565b60006001600084815260200190815260200160002060000160008373ffffffffffffffffffffffffffffffffffffffff1673ffffffffffffffffffffffffffffffffffffffff16815260200190815260200160002060009054906101000a900460ff16905092915050565b6112c56000801b3361124d565b6112ce57600080fd5b6112fd6000801b600560009054906101000a900473ffffffffffffffffffffffffffffffffffffffff16611cfd565b33600560006101000a81548173ffffffffffffffffffffffffffffffffffffffff021916908373ffffffffffffffffffffffffffffffffffffffff16021790555061134b6000801b33611b78565b565b6000801b81565b600a818154811061136457600080fd5b90600052602060002090600502016000915090508060000154908060010160009054906101000a900473ffffffffffffffffffffffffffffffffffffffff16908060020160009054906101000a900473ffffffffffffffffffffffffffffffffffffffff16908060030160009054906101000a900473ffffffffffffffffffffffffffffffffffffffff16908060040154905085565b600360009054906101000a900473ffffffffffffffffffffffffffffffffffffffff1681565b6002818154811061143057600080fd5b906000526020600020016000915054906101000a900473ffffffffffffffffffffffffffffffffffffffff1681565b600560009054906101000a900473ffffffffffffffffffffffffffffffffffffffff1681565b60006114b17f71840dc4906352362b0cdaf79870196c8e42acafade72d5d5a6d59291253ceb13361124d565b806114c557506114c46000801b3361124d565b5b6114ce57600080fd5b6000600760008473ffffffffffffffffffffffffffffffffffffffff1673ffffffffffffffffffffffffffffffffffffffff168152602001908152602001600020541461151a57600080fd5b6000600680549050905080600760008573ffffffffffffffffffffffffffffffffffffffff1673ffffffffffffffffffffffffffffffffffffffff168152602001908152602001600020819055506006839080600181540180825580915050600190039060005260206000200160009091909190916101000a81548173ffffffffffffffffffffffffffffffffffffffff021916908373ffffffffffffffffffffffffffffffffffffffff1602179055506001915050919050565b6115de82610ced565b6115ef816115ea611c58565b611c60565b6115f98383611cfd565b505050565b61160661236b565b600b60008381526020019081526020016000206040518060a0016040529081600082015481526020016001820160009054906101000a900473ffffffffffffffffffffffffffffffffffffffff1673ffffffffffffffffffffffffffffffffffffffff1673ffffffffffffffffffffffffffffffffffffffff1681526020016002820160009054906101000a900473ffffffffffffffffffffffffffffffffffffffff1673ffffffffffffffffffffffffffffffffffffffff1673ffffffffffffffffffffffffffffffffffffffff1681526020016003820160009054906101000a900473ffffffffffffffffffffffffffffffffffffffff1673ffffffffffffffffffffffffffffffffffffffff1673ffffffffffffffffffffffffffffffffffffffff1681526020016004820154815250509050919050565b611749611c58565b73ffffffffffffffffffffffffffffffffffffffff16611767611224565b73ffffffffffffffffffffffffffffffffffffffff16146117bd576040517f08c379a00000000000000000000000000000000000000000000000000000000081526004016117b490612ea4565b60405180910390fd5b600073ffffffffffffffffffffffffffffffffffffffff168173ffffffffffffffffffffffffffffffffffffffff16141561182d576040517f08c379a000000000000000000000000000000000000000000000000000000000815260040161182490612e44565b60405180910390fd5b61183681611ddf565b50565b60006118657f71840dc4906352362b0cdaf79870196c8e42acafade72d5d5a6d59291253ceb13361124d565b8061187957506118786000801b3361124d565b5b61188257600080fd5b60006118918784888888611ea3565b905061189b61236b565b81816020019073ffffffffffffffffffffffffffffffffffffffff16908173ffffffffffffffffffffffffffffffffffffffff1681525050600a8054905081600001818152505087816040019073ffffffffffffffffffffffffffffffffffffffff16908173ffffffffffffffffffffffffffffffffffffffff168152505087816060019073ffffffffffffffffffffffffffffffffffffffff16908173ffffffffffffffffffffffffffffffffffffffff16815250506101c8816080018181525050600a8190806001815401808255809150506001900390600052602060002090600502016000909190919091506000820151816000015560208201518160010160006101000a81548173ffffffffffffffffffffffffffffffffffffffff021916908373ffffffffffffffffffffffffffffffffffffffff16021790555060408201518160020160006101000a81548173ffffffffffffffffffffffffffffffffffffffff021916908373ffffffffffffffffffffffffffffffffffffffff16021790555060608201518160030160006101000a81548173ffffffffffffffffffffffffffffffffffffffff021916908373ffffffffffffffffffffffffffffffffffffffff160217905550608082015181600401555050819250505095945050505050565b611aad7f71840dc4906352362b0cdaf79870196c8e42acafade72d5d5a6d59291253ceb13361124d565b80611ac15750611ac06000801b3361124d565b5b611aca57600080fd5b80600860006101000a81548173ffffffffffffffffffffffffffffffffffffffff021916908373ffffffffffffffffffffffffffffffffffffffff16021790555050565b60007f01ffc9a7000000000000000000000000000000000000000000000000000000007bffffffffffffffffffffffffffffffffffffffffffffffffffffffff1916827bffffffffffffffffffffffffffffffffffffffffffffffffffffffff1916149050919050565b611b82828261124d565b611c5457600180600084815260200190815260200160002060000160008373ffffffffffffffffffffffffffffffffffffffff1673ffffffffffffffffffffffffffffffffffffffff16815260200190815260200160002060006101000a81548160ff021916908315150217905550611bf9611c58565b73ffffffffffffffffffffffffffffffffffffffff168173ffffffffffffffffffffffffffffffffffffffff16837f2f8788117e7eff1d82e926ec794901d17c78024a50270940304540a733656f0d60405160405180910390a45b5050565b600033905090565b611c6a828261124d565b611cf957611c8f8173ffffffffffffffffffffffffffffffffffffffff166014612007565b611c9d8360001c6020612007565b604051602001611cae929190612c31565b6040516020818303038152906040526040517f08c379a0000000000000000000000000000000000000000000000000000000008152600401611cf09190612e02565b60405180910390fd5b5050565b611d07828261124d565b15611ddb5760006001600084815260200190815260200160002060000160008373ffffffffffffffffffffffffffffffffffffffff1673ffffffffffffffffffffffffffffffffffffffff16815260200190815260200160002060006101000a81548160ff021916908315150217905550611d80611c58565b73ffffffffffffffffffffffffffffffffffffffff168173ffffffffffffffffffffffffffffffffffffffff16837ff6391f5c32d9c69d2a47ea670b442974b53935d1edc7fd64eb21e047a839171b60405160405180910390a45b5050565b60008060009054906101000a900473ffffffffffffffffffffffffffffffffffffffff169050816000806101000a81548173ffffffffffffffffffffffffffffffffffffffff021916908373ffffffffffffffffffffffffffffffffffffffff1602179055508173ffffffffffffffffffffffffffffffffffffffff168173ffffffffffffffffffffffffffffffffffffffff167f8be0079c531659141344cd1fd0a4f28419497f9722a3daafe3b4186f6b6457e060405160405180910390a35050565b6000611ead611c58565b73ffffffffffffffffffffffffffffffffffffffff16611ecb611224565b73ffffffffffffffffffffffffffffffffffffffff1614611f21576040517f08c379a0000000000000000000000000000000000000000000000000000000008152600401611f1890612ea4565b60405180910390fd5b6000611f4e600360009054906101000a900473ffffffffffffffffffffffffffffffffffffffff16612301565b90508073ffffffffffffffffffffffffffffffffffffffff16639fb6cc1388888888886040518663ffffffff1660e01b8152600401611f91959493929190612caf565b600060405180830381600087803b158015611fab57600080fd5b505af1158015611fbf573d6000803e3d6000fd5b505050507f72887f37d27f71be34bd562a96863c9385ae0856c548ef3c183101ef9a42993881604051611ff29190612c6b565b60405180910390a18091505095945050505050565b60606000600283600261201a9190613154565b61202491906130fe565b67ffffffffffffffff811115612063577f4e487b7100000000000000000000000000000000000000000000000000000000600052604160045260246000fd5b6040519080825280601f01601f1916602001820160405280156120955781602001600182028036833780820191505090505b5090507f3000000000000000000000000000000000000000000000000000000000000000816000815181106120f3577f4e487b7100000000000000000000000000000000000000000000000000000000600052603260045260246000fd5b60200101907effffffffffffffffffffffffffffffffffffffffffffffffffffffffffffff1916908160001a9053507f78000000000000000000000000000000000000000000000000000000000000008160018151811061217d577f4e487b7100000000000000000000000000000000000000000000000000000000600052603260045260246000fd5b60200101907effffffffffffffffffffffffffffffffffffffffffffffffffffffffffffff1916908160001a905350600060018460026121bd9190613154565b6121c791906130fe565b90505b60018111156122b3577f3031323334353637383961626364656600000000000000000000000000000000600f86166010811061222f577f4e487b7100000000000000000000000000000000000000000000000000000000600052603260045260246000fd5b1a60f81b82828151811061226c577f4e487b7100000000000000000000000000000000000000000000000000000000600052603260045260246000fd5b60200101907effffffffffffffffffffffffffffffffffffffffffffffffffffffffffffff1916908160001a905350600485901c9450806122ac90613301565b90506121ca565b50600084146122f7576040517f08c379a00000000000000000000000000000000000000000000000000000000081526004016122ee90612e24565b60405180910390fd5b8091505092915050565b6000808260601b90506040517f3d602d80600a3d3981f3363d3d373d3d3d363d7300000000000000000000000081528160148201527f5af43d82803e903d91602b57fd5bf3000000000000000000000000000000000060288201526037816000f092505050919050565b6040518060a0016040528060008152602001600073ffffffffffffffffffffffffffffffffffffffff168152602001600073ffffffffffffffffffffffffffffffffffffffff168152602001600073ffffffffffffffffffffffffffffffffffffffff168152602001600081525090565b60006123ef6123ea84612fd2565b612fad565b9050808382526020820190508285602086028201111561240e57600080fd5b60005b8581101561243e57816124248882612448565b845260208401935060208301925050600181019050612411565b5050509392505050565b600081359050612457816135d4565b92915050565b60008151905061246c816135d4565b92915050565b600082601f83011261248357600080fd5b81356124938482602086016123dc565b91505092915050565b60008083601f8401126124ae57600080fd5b8235905067ffffffffffffffff8111156124c757600080fd5b6020830191508360208202830111156124df57600080fd5b9250929050565b6000813590506124f5816135eb565b92915050565b60008135905061250a81613602565b92915050565b60008135905061251f81613619565b92915050565b60008135905061253481613630565b92915050565b60008135905061254981613647565b92915050565b60006020828403121561256157600080fd5b600061256f84828501612448565b91505092915050565b60006020828403121561258a57600080fd5b60006125988482850161245d565b91505092915050565b600080600080600060a086880312156125b957600080fd5b60006125c788828901612448565b95505060206125d888828901612510565b94505060406125e988828901612510565b93505060606125fa88828901612510565b925050608061260b8882890161253a565b9150509295509295909350565b6000806000806060858703121561262e57600080fd5b600085013567ffffffffffffffff81111561264857600080fd5b61265487828801612472565b945050602085013567ffffffffffffffff81111561267157600080fd5b61267d8782880161249c565b9350935050604061269087828801612525565b91505092959194509250565b6000602082840312156126ae57600080fd5b60006126bc848285016124e6565b91505092915050565b600080604083850312156126d857600080fd5b60006126e6858286016124e6565b92505060206126f785828601612448565b9150509250929050565b60006020828403121561271357600080fd5b6000612721848285016124fb565b91505092915050565b60006020828403121561273c57600080fd5b600061274a84828501612510565b91505092915050565b600061275f838361279b565b60208301905092915050565b60006127778383612b25565b60a08301905092915050565b600061278f8383612c13565b60208301905092915050565b6127a481613216565b82525050565b6127b381613216565b82525050565b60006127c482613038565b6127ce8185613098565b93506127d983612ffe565b8060005b8381101561280a5781516127f18882612753565b97506127fc83613064565b9250506001810190506127dd565b5085935050505092915050565b600061282282613043565b61282c81856130a9565b93506128378361300e565b8060005b8381101561286857815161284f888261276b565b975061285a83613071565b92505060018101905061283b565b5085935050505092915050565b600061288183856130ba565b935061288c8261301e565b8060005b858110156128c5576128a282846130e7565b6128ac8882612783565b97506128b78361307e565b925050600181019050612890565b5085925050509392505050565b60006128dd8261304e565b6128e781856130ba565b93506128f283613028565b8060005b8381101561292357815161290a8882612783565b97506129158361308b565b9250506001810190506128f6565b5085935050505092915050565b61293981613228565b82525050565b61294881613234565b82525050565b612957816132bc565b82525050565b600061296882613059565b61297281856130cb565b93506129828185602086016132ce565b61298b81613403565b840191505092915050565b60006129a182613059565b6129ab81856130dc565b93506129bb8185602086016132ce565b80840191505092915050565b60006129d46020836130cb565b91506129df82613414565b602082019050919050565b60006129f76026836130cb565b9150612a028261343d565b604082019050919050565b6000612a1a601f836130cb565b9150612a258261348c565b602082019050919050565b6000612a3d6018836130cb565b9150612a48826134b5565b602082019050919050565b6000612a606020836130cb565b9150612a6b826134de565b602082019050919050565b6000612a836000836130cb565b9150612a8e82613507565b600082019050919050565b6000612aa6601a836130cb565b9150612ab18261350a565b602082019050919050565b6000612ac96017836130dc565b9150612ad482613533565b601782019050919050565b6000612aec6011836130dc565b9150612af78261355c565b601182019050919050565b6000612b0f602f836130cb565b9150612b1a82613585565b604082019050919050565b60a082016000820151612b3b6000850182612bf5565b506020820151612b4e602085018261279b565b506040820151612b61604085018261279b565b506060820151612b74606085018261279b565b506080820151612b876080850182612bf5565b50505050565b60a082016000820151612ba36000850182612bf5565b506020820151612bb6602085018261279b565b506040820151612bc9604085018261279b565b506060820151612bdc606085018261279b565b506080820151612bef6080850182612bf5565b50505050565b612bfe8161328a565b82525050565b612c0d8161328a565b82525050565b612c1c81613294565b82525050565b612c2b816132a4565b82525050565b6000612c3c82612abc565b9150612c488285612996565b9150612c5382612adf565b9150612c5f8284612996565b91508190509392505050565b6000602082019050612c8060008301846127aa565b92915050565b6000604082019050612c9b60008301856127aa565b612ca860208301846127aa565b9392505050565b600060a082019050612cc460008301886127aa565b612cd16020830187612c22565b612cde6040830186612c04565b612ceb6060830185612c04565b612cf86080830184612c04565b9695505050505050565b60006080820190508181036000830152612d1c81886127b9565b90508181036020830152612d31818688612875565b9050612d40604083018561294e565b612d4d60608301846127aa565b9695505050505050565b60006080820190508181036000830152612d7181876127b9565b90508181036020830152612d8581866128d2565b9050612d94604083018561294e565b612da160608301846127aa565b95945050505050565b60006020820190508181036000830152612dc48184612817565b905092915050565b6000602082019050612de16000830184612930565b92915050565b6000602082019050612dfc600083018461293f565b92915050565b60006020820190508181036000830152612e1c818461295d565b905092915050565b60006020820190508181036000830152612e3d816129c7565b9050919050565b60006020820190508181036000830152612e5d816129ea565b9050919050565b60006020820190508181036000830152612e7d81612a0d565b9050919050565b60006020820190508181036000830152612e9d81612a30565b9050919050565b60006020820190508181036000830152612ebd81612a53565b9050919050565b60006020820190508181036000830152612edd81612a76565b9050919050565b60006020820190508181036000830152612efd81612a99565b9050919050565b60006020820190508181036000830152612f1d81612b02565b9050919050565b600060a082019050612f396000830184612b8d565b92915050565b6000602082019050612f546000830184612c04565b92915050565b600060a082019050612f6f6000830188612c04565b612f7c60208301876127aa565b612f8960408301866127aa565b612f9660608301856127aa565b612fa36080830184612c04565b9695505050505050565b6000612fb7612fc8565b9050612fc3828261332b565b919050565b6000604051905090565b600067ffffffffffffffff821115612fed57612fec6133d4565b5b602082029050602081019050919050565b6000819050602082019050919050565b6000819050602082019050919050565b6000819050919050565b6000819050602082019050919050565b600081519050919050565b600081519050919050565b600081519050919050565b600081519050919050565b6000602082019050919050565b6000602082019050919050565b6000602082019050919050565b6000602082019050919050565b600082825260208201905092915050565b600082825260208201905092915050565b600082825260208201905092915050565b600082825260208201905092915050565b600081905092915050565b60006130f66020840184612525565b905092915050565b60006131098261328a565b91506131148361328a565b9250827fffffffffffffffffffffffffffffffffffffffffffffffffffffffffffffffff03821115613149576131486133a5565b5b828201905092915050565b600061315f8261328a565b915061316a8361328a565b9250817fffffffffffffffffffffffffffffffffffffffffffffffffffffffffffffffff04831182151516156131a3576131a26133a5565b5b828202905092915050565b60006131b98261328a565b91506131c48361328a565b9250828210156131d7576131d66133a5565b5b828203905092915050565b60006131ed82613294565b91506131f883613294565b92508282101561320b5761320a6133a5565b5b828203905092915050565b60006132218261326a565b9050919050565b60008115159050919050565b6000819050919050565b60007fffffffff0000000000000000000000000000000000000000000000000000000082169050919050565b600073ffffffffffffffffffffffffffffffffffffffff82169050919050565b6000819050919050565b600063ffffffff82169050919050565b60006bffffffffffffffffffffffff82169050919050565b60006132c782613294565b9050919050565b60005b838110156132ec5780820151818401526020810190506132d1565b838111156132fb576000848401525b50505050565b600061330c8261328a565b915060008214156133205761331f6133a5565b5b600182039050919050565b61333482613403565b810181811067ffffffffffffffff82111715613353576133526133d4565b5b80604052505050565b60006133678261328a565b91507fffffffffffffffffffffffffffffffffffffffffffffffffffffffffffffffff82141561339a576133996133a5565b5b600182019050919050565b7f4e487b7100000000000000000000000000000000000000000000000000000000600052601160045260246000fd5b7f4e487b7100000000000000000000000000000000000000000000000000000000600052604160045260246000fd5b6000601f19601f8301169050919050565b7f537472696e67733a20686578206c656e67746820696e73756666696369656e74600082015250565b7f4f776e61626c653a206e6577206f776e657220697320746865207a65726f206160008201527f6464726573730000000000000000000000000000000000000000000000000000602082015250565b7f616464726573737320646f6573206e6f7420686176652074686520726f6c6500600082015250565b7f6e6f742061206d656d626572206f66207468652062616e640000000000000000600082015250565b7f4f776e61626c653a2063616c6c6572206973206e6f7420746865206f776e6572600082015250565b50565b7f6f6e6c792041646d696e2063616e206772616e7420726f6c6573000000000000600082015250565b7f416363657373436f6e74726f6c3a206163636f756e7420000000000000000000600082015250565b7f206973206d697373696e6720726f6c6520000000000000000000000000000000600082015250565b7f416363657373436f6e74726f6c3a2063616e206f6e6c792072656e6f756e636560008201527f20726f6c657320666f722073656c660000000000000000000000000000000000602082015250565b6135dd81613216565b81146135e857600080fd5b50565b6135f481613234565b81146135ff57600080fd5b50565b61360b8161323e565b811461361657600080fd5b50565b6136228161328a565b811461362d57600080fd5b50565b61363981613294565b811461364457600080fd5b50565b613650816132a4565b811461365b57600080fd5b5056fea26469706673582212204db574b95bed5319fbae391e65120c51a070ea8d85b87a234ebfe119c9e2cb8864736f6c63430008040033a264697066735822122040e37fa088f6a51dddf9d394044c7c5f5fe7229ffd3e6798a351c3d284e7781764736f6c63430008040033",
    "linkReferences": {},
    "deployedLinkReferences": {}
}