{
    "_format": "hh-sol-artifact-1",
    "contractName": "N456Factory",
    "sourceName": "contracts/NewBandContract.sol",
    "abi": [
        {
            "inputs": [
                {
                    "internalType": "uint256",
                    "name": "_id",
                    "type": "uint256"
                },
                {
                    "internalType": "address",
                    "name": "_bandAdmin",
                    "type": "address"
                }
            ],
            "stateMutability": "nonpayable",
            "type": "constructor"
        },
        {
            "anonymous": false,
            "inputs": [
                {
                    "indexed": false,
                    "internalType": "address",
                    "name": "newFoundation",
                    "type": "address"
                }
            ],
            "name": "N456Created",
            "type": "event"
        },
        {
            "anonymous": false,
            "inputs": [
                {
                    "indexed": true,
                    "internalType": "address",
                    "name": "previousOwner",
                    "type": "address"
                },
                {
                    "indexed": true,
                    "internalType": "address",
                    "name": "newOwner",
                    "type": "address"
                }
            ],
            "name": "OwnershipTransferred",
            "type": "event"
        },
        {
            "anonymous": false,
            "inputs": [
                {
                    "indexed": true,
                    "internalType": "bytes32",
                    "name": "role",
                    "type": "bytes32"
                },
                {
                    "indexed": true,
                    "internalType": "bytes32",
                    "name": "previousAdminRole",
                    "type": "bytes32"
                },
                {
                    "indexed": true,
                    "internalType": "bytes32",
                    "name": "newAdminRole",
                    "type": "bytes32"
                }
            ],
            "name": "RoleAdminChanged",
            "type": "event"
        },
        {
            "anonymous": false,
            "inputs": [
                {
                    "indexed": true,
                    "internalType": "bytes32",
                    "name": "role",
                    "type": "bytes32"
                },
                {
                    "indexed": true,
                    "internalType": "address",
                    "name": "account",
                    "type": "address"
                },
                {
                    "indexed": true,
                    "internalType": "address",
                    "name": "sender",
                    "type": "address"
                }
            ],
            "name": "RoleGranted",
            "type": "event"
        },
        {
            "anonymous": false,
            "inputs": [
                {
                    "indexed": true,
                    "internalType": "bytes32",
                    "name": "role",
                    "type": "bytes32"
                },
                {
                    "indexed": true,
                    "internalType": "address",
                    "name": "account",
                    "type": "address"
                },
                {
                    "indexed": true,
                    "internalType": "address",
                    "name": "sender",
                    "type": "address"
                }
            ],
            "name": "RoleRevoked",
            "type": "event"
        },
        {
            "inputs": [],
            "name": "DEFAULT_ADMIN_ROLE",
            "outputs": [
                {
                    "internalType": "bytes32",
                    "name": "",
                    "type": "bytes32"
                }
            ],
            "stateMutability": "view",
            "type": "function"
        },
        {
            "inputs": [
                {
                    "internalType": "address",
                    "name": "_libraryAddress",
                    "type": "address"
                }
            ],
            "name": "N456getLibAddr",
            "outputs": [],
            "stateMutability": "nonpayable",
            "type": "function"
        },
        {
            "inputs": [
                {
                    "internalType": "address",
                    "name": "_add",
                    "type": "address"
                }
            ],
            "name": "addMember",
            "outputs": [
                {
                    "internalType": "bool",
                    "name": "",
                    "type": "bool"
                }
            ],
            "stateMutability": "nonpayable",
            "type": "function"
        },
        {
            "inputs": [
                {
                    "internalType": "address[]",
                    "name": "_add",
                    "type": "address[]"
                }
            ],
            "name": "addMemberBulk",
            "outputs": [
                {
                    "internalType": "bool",
                    "name": "",
                    "type": "bool"
                }
            ],
            "stateMutability": "nonpayable",
            "type": "function"
        },
        {
            "inputs": [
                {
                    "internalType": "uint256",
                    "name": "",
                    "type": "uint256"
                }
            ],
            "name": "allNFTsOfBand",
            "outputs": [
                {
                    "internalType": "address",
                    "name": "",
                    "type": "address"
                }
            ],
            "stateMutability": "view",
            "type": "function"
        },
        {
            "inputs": [
                {
                    "internalType": "uint256",
                    "name": "",
                    "type": "uint256"
                }
            ],
            "name": "allSongs",
            "outputs": [
                {
                    "internalType": "uint256",
                    "name": "songId",
                    "type": "uint256"
                },
                {
                    "internalType": "address",
                    "name": "nftContract",
                    "type": "address"
                },
                {
                    "internalType": "address",
                    "name": "splitAddressWithAlive",
                    "type": "address"
                },
                {
                    "internalType": "address",
                    "name": "splitNonFee",
                    "type": "address"
                },
                {
                    "internalType": "uint256",
                    "name": "typeOfNFT",
                    "type": "uint256"
                }
            ],
            "stateMutability": "view",
            "type": "function"
        },
        {
            "inputs": [],
            "name": "bandAdmin",
            "outputs": [
                {
                    "internalType": "address",
                    "name": "",
                    "type": "address"
                }
            ],
            "stateMutability": "view",
            "type": "function"
        },
        {
            "inputs": [],
            "name": "bandId",
            "outputs": [
                {
                    "internalType": "uint256",
                    "name": "",
                    "type": "uint256"
                }
            ],
            "stateMutability": "view",
            "type": "function"
        },
        {
            "inputs": [
                {
                    "internalType": "address",
                    "name": "royalityReceiver",
                    "type": "address"
                },
                {
                    "internalType": "uint256",
                    "name": "_fixedMintTokenID",
                    "type": "uint256"
                },
                {
                    "internalType": "uint256",
                    "name": "_maxFixedMint",
                    "type": "uint256"
                },
                {
                    "internalType": "uint256",
                    "name": "_fixedMintPrice",
                    "type": "uint256"
                },
                {
                    "internalType": "uint96",
                    "name": "_royaltyFeesInBips",
                    "type": "uint96"
                }
            ],
            "name": "createNewSong",
            "outputs": [
                {
                    "internalType": "address",
                    "name": "",
                    "type": "address"
                }
            ],
            "stateMutability": "nonpayable",
            "type": "function"
        },
        {
            "inputs": [
                {
                    "internalType": "address[]",
                    "name": "accounts",
                    "type": "address[]"
                },
                {
                    "internalType": "uint32[]",
                    "name": "percentAllocations",
                    "type": "uint32[]"
                }
            ],
            "name": "createSplitWallet",
            "outputs": [
                {
                    "internalType": "address",
                    "name": "",
                    "type": "address"
                }
            ],
            "stateMutability": "nonpayable",
            "type": "function"
        },
        {
            "inputs": [],
            "name": "getAllSongs",
            "outputs": [
                {
                    "components": [
                        {
                            "internalType": "uint256",
                            "name": "songId",
                            "type": "uint256"
                        },
                        {
                            "internalType": "address",
                            "name": "nftContract",
                            "type": "address"
                        },
                        {
                            "internalType": "address",
                            "name": "splitAddressWithAlive",
                            "type": "address"
                        },
                        {
                            "internalType": "address",
                            "name": "splitNonFee",
                            "type": "address"
                        },
                        {
                            "internalType": "uint256",
                            "name": "typeOfNFT",
                            "type": "uint256"
                        }
                    ],
                    "internalType": "struct N456Factory.Songs[]",
                    "name": "",
                    "type": "tuple[]"
                }
            ],
            "stateMutability": "view",
            "type": "function"
        },
        {
            "inputs": [
                {
                    "internalType": "bytes32",
                    "name": "role",
                    "type": "bytes32"
                }
            ],
            "name": "getRoleAdmin",
            "outputs": [
                {
                    "internalType": "bytes32",
                    "name": "",
                    "type": "bytes32"
                }
            ],
            "stateMutability": "view",
            "type": "function"
        },
        {
            "inputs": [
                {
                    "internalType": "uint256",
                    "name": "id",
                    "type": "uint256"
                }
            ],
            "name": "getSongFromId",
            "outputs": [
                {
                    "components": [
                        {
                            "internalType": "uint256",
                            "name": "songId",
                            "type": "uint256"
                        },
                        {
                            "internalType": "address",
                            "name": "nftContract",
                            "type": "address"
                        },
                        {
                            "internalType": "address",
                            "name": "splitAddressWithAlive",
                            "type": "address"
                        },
                        {
                            "internalType": "address",
                            "name": "splitNonFee",
                            "type": "address"
                        },
                        {
                            "internalType": "uint256",
                            "name": "typeOfNFT",
                            "type": "uint256"
                        }
                    ],
                    "internalType": "struct N456Factory.Songs",
                    "name": "",
                    "type": "tuple"
                }
            ],
            "stateMutability": "view",
            "type": "function"
        },
        {
            "inputs": [
                {
                    "internalType": "address",
                    "name": "_to",
                    "type": "address"
                }
            ],
            "name": "giveGovernanceRole",
            "outputs": [],
            "stateMutability": "nonpayable",
            "type": "function"
        },
        {
            "inputs": [
                {
                    "internalType": "bytes32",
                    "name": "role",
                    "type": "bytes32"
                },
                {
                    "internalType": "address",
                    "name": "account",
                    "type": "address"
                }
            ],
            "name": "grantRole",
            "outputs": [],
            "stateMutability": "nonpayable",
            "type": "function"
        },
        {
            "inputs": [
                {
                    "internalType": "bytes32",
                    "name": "role",
                    "type": "bytes32"
                },
                {
                    "internalType": "address",
                    "name": "account",
                    "type": "address"
                }
            ],
            "name": "hasRole",
            "outputs": [
                {
                    "internalType": "bool",
                    "name": "",
                    "type": "bool"
                }
            ],
            "stateMutability": "view",
            "type": "function"
        },
        {
            "inputs": [],
            "name": "libraryAddress",
            "outputs": [
                {
                    "internalType": "address",
                    "name": "",
                    "type": "address"
                }
            ],
            "stateMutability": "view",
            "type": "function"
        },
        {
            "inputs": [
                {
                    "internalType": "uint256",
                    "name": "",
                    "type": "uint256"
                }
            ],
            "name": "membersOfBand",
            "outputs": [
                {
                    "internalType": "address",
                    "name": "",
                    "type": "address"
                }
            ],
            "stateMutability": "view",
            "type": "function"
        },
        {
            "inputs": [],
            "name": "owner",
            "outputs": [
                {
                    "internalType": "address",
                    "name": "",
                    "type": "address"
                }
            ],
            "stateMutability": "view",
            "type": "function"
        },
        {
            "inputs": [
                {
                    "internalType": "address",
                    "name": "_add",
                    "type": "address"
                }
            ],
            "name": "removeMember",
            "outputs": [
                {
                    "internalType": "bool",
                    "name": "",
                    "type": "bool"
                }
            ],
            "stateMutability": "nonpayable",
            "type": "function"
        },
        {
            "inputs": [],
            "name": "renounceOwnership",
            "outputs": [],
            "stateMutability": "nonpayable",
            "type": "function"
        },
        {
            "inputs": [
                {
                    "internalType": "bytes32",
                    "name": "role",
                    "type": "bytes32"
                },
                {
                    "internalType": "address",
                    "name": "account",
                    "type": "address"
                }
            ],
            "name": "renounceRole",
            "outputs": [],
            "stateMutability": "nonpayable",
            "type": "function"
        },
        {
            "inputs": [
                {
                    "internalType": "address",
                    "name": "_to",
                    "type": "address"
                }
            ],
            "name": "retriveGovernanceRole",
            "outputs": [],
            "stateMutability": "nonpayable",
            "type": "function"
        },
        {
            "inputs": [
                {
                    "internalType": "bytes32",
                    "name": "role",
                    "type": "bytes32"
                },
                {
                    "internalType": "address",
                    "name": "account",
                    "type": "address"
                }
            ],
            "name": "revokeRole",
            "outputs": [],
            "stateMutability": "nonpayable",
            "type": "function"
        },
        {
            "inputs": [
                {
                    "internalType": "address",
                    "name": "_libraryAddress",
                    "type": "address"
                }
            ],
            "name": "setLibraryAddress",
            "outputs": [],
            "stateMutability": "nonpayable",
            "type": "function"
        },
        {
            "inputs": [
                {
                    "internalType": "bytes4",
                    "name": "interfaceId",
                    "type": "bytes4"
                }
            ],
            "name": "supportsInterface",
            "outputs": [
                {
                    "internalType": "bool",
                    "name": "",
                    "type": "bool"
                }
            ],
            "stateMutability": "view",
            "type": "function"
        },
        {
            "inputs": [],
            "name": "transferAdminOwnership",
            "outputs": [],
            "stateMutability": "nonpayable",
            "type": "function"
        },
        {
            "inputs": [
                {
                    "internalType": "address",
                    "name": "newOwner",
                    "type": "address"
                }
            ],
            "name": "transferOwnership",
            "outputs": [],
            "stateMutability": "nonpayable",
            "type": "function"
        },
        {
            "inputs": [
                {
                    "internalType": "address",
                    "name": "splitsMain",
                    "type": "address"
                }
            ],
            "name": "updateSplitAddress",
            "outputs": [],
            "stateMutability": "nonpayable",
            "type": "function"
        }
    ],
    "bytecode": "0x6080604052732ed6c4b5da6378c7897ac67ba9e43102feb694ee600860006101000a81548173ffffffffffffffffffffffffffffffffffffffff021916908373ffffffffffffffffffffffffffffffffffffffff160217905550730dd68c06af920ca069cdc27d05aa9eb65f85990a600960006101000a81548173ffffffffffffffffffffffffffffffffffffffff021916908373ffffffffffffffffffffffffffffffffffffffff160217905550620186a0600960146101000a81548163ffffffff021916908363ffffffff160217905550348015620000df57600080fd5b50604051620039c8380380620039c8833981810160405281019062000105919062000430565b6200012562000119620001da60201b60201c565b620001e260201b60201c565b81600481905550620001416000801b82620002a660201b60201c565b62000151620001da60201b60201c565b600560006101000a81548173ffffffffffffffffffffffffffffffffffffffff021916908373ffffffffffffffffffffffffffffffffffffffff160217905550620001d27f71840dc4906352362b0cdaf79870196c8e42acafade72d5d5a6d59291253ceb1620001c6620001da60201b60201c565b620002a660201b60201c565b5050620004e3565b600033905090565b60008060009054906101000a900473ffffffffffffffffffffffffffffffffffffffff169050816000806101000a81548173ffffffffffffffffffffffffffffffffffffffff021916908373ffffffffffffffffffffffffffffffffffffffff1602179055508173ffffffffffffffffffffffffffffffffffffffff168173ffffffffffffffffffffffffffffffffffffffff167f8be0079c531659141344cd1fd0a4f28419497f9722a3daafe3b4186f6b6457e060405160405180910390a35050565b620002b882826200039760201b60201c565b6200039357600180600084815260200190815260200160002060000160008373ffffffffffffffffffffffffffffffffffffffff1673ffffffffffffffffffffffffffffffffffffffff16815260200190815260200160002060006101000a81548160ff02191690831515021790555062000338620001da60201b60201c565b73ffffffffffffffffffffffffffffffffffffffff168173ffffffffffffffffffffffffffffffffffffffff16837f2f8788117e7eff1d82e926ec794901d17c78024a50270940304540a733656f0d60405160405180910390a45b5050565b60006001600084815260200190815260200160002060000160008373ffffffffffffffffffffffffffffffffffffffff1673ffffffffffffffffffffffffffffffffffffffff16815260200190815260200160002060009054906101000a900460ff16905092915050565b6000815190506200041381620004af565b92915050565b6000815190506200042a81620004c9565b92915050565b600080604083850312156200044457600080fd5b6000620004548582860162000419565b9250506020620004678582860162000402565b9150509250929050565b60006200047e8262000485565b9050919050565b600073ffffffffffffffffffffffffffffffffffffffff82169050919050565b6000819050919050565b620004ba8162000471565b8114620004c657600080fd5b50565b620004d481620004a5565b8114620004e057600080fd5b50565b6134d580620004f36000396000f3fe608060405234801561001057600080fd5b50600436106101cf5760003560e01c80638da5cb5b11610104578063b8fe4b89116100a2578063e970a2c411610071578063e970a2c414610544578063f2fde38b14610574578063f8b4a22f14610590578063fdcb387c146105c0576101cf565b8063b8fe4b89146104aa578063c9c46b3b146104da578063ca6d56dc146104f8578063d547741f14610528576101cf565b8063a217fddf116100de578063a217fddf1461040a578063a2b512a214610428578063a6b46a6f14610458578063b816f5131461048c576101cf565b80638da5cb5b146103b257806391d14854146103d0578063968ea46814610400576101cf565b806336568abe116101715780634d40c3451161014b5780634d40c345146103405780636505e17e1461035c578063715018a61461038c57806374c8ba4714610396576101cf565b806336568abe146102ea5780634863ba17146103065780634d043eea14610322576101cf565b8063271e611a116101ad578063271e611a1461026457806329ef6862146102805780632f2ff15d1461029e578063323daf63146102ba576101cf565b806301ffc9a7146101d45780630b1ca49a14610204578063248a9ca314610234575b600080fd5b6101ee60048036038101906101e991906126be565b6105dc565b6040516101fb9190612c8c565b60405180910390f35b61021e600480360381019061021991906124df565b610656565b60405161022b9190612c8c565b60405180910390f35b61024e60048036038101906102499190612659565b610945565b60405161025b9190612ca7565b60405180910390f35b61027e600480360381019061027991906124df565b610965565b005b6102886109de565b6040516102959190612c6a565b60405180910390f35b6102b860048036038101906102b39190612682565b610b53565b005b6102d460048036038101906102cf91906125e9565b610b7c565b6040516102e19190612ba7565b60405180910390f35b61030460048036038101906102ff9190612682565b610c8a565b005b610320600480360381019061031b91906124df565b610d0d565b005b61032a610dcd565b6040516103379190612ddf565b60405180910390f35b61035a600480360381019061035591906124df565b610dd3565b005b610376600480360381019061037191906126e7565b610e7f565b6040516103839190612ba7565b60405180910390f35b610394610ebe565b005b6103b060048036038101906103ab91906124df565b610f46565b005b6103ba610f8a565b6040516103c79190612ba7565b60405180910390f35b6103ea60048036038101906103e59190612682565b610fb3565b6040516103f79190612c8c565b60405180910390f35b61040861101e565b005b6104126110b3565b60405161041f9190612ca7565b60405180910390f35b610442600480360381019061043d91906125a8565b6110ba565b60405161044f9190612c8c565b60405180910390f35b610472600480360381019061046d91906126e7565b6112e4565b604051610483959493929190612dfa565b60405180910390f35b61049461138a565b6040516104a19190612ba7565b60405180910390f35b6104c460048036038101906104bf91906126e7565b6113b0565b6040516104d19190612ba7565b60405180910390f35b6104e26113ef565b6040516104ef9190612ba7565b60405180910390f35b610512600480360381019061050d91906124df565b611415565b60405161051f9190612c8c565b60405180910390f35b610542600480360381019061053d9190612682565b611565565b005b61055e600480360381019061055991906126e7565b61158e565b60405161056b9190612dc4565b60405180910390f35b61058e600480360381019061058991906124df565b6116d1565b005b6105aa60048036038101906105a59190612531565b6117c9565b6040516105b79190612ba7565b60405180910390f35b6105da60048036038101906105d591906124df565b611a13565b005b60007f7965db0b000000000000000000000000000000000000000000000000000000007bffffffffffffffffffffffffffffffffffffffffffffffffffffffff1916827bffffffffffffffffffffffffffffffffffffffffffffffffffffffff1916148061064f575061064e82611a9e565b5b9050919050565b60006106827f71840dc4906352362b0cdaf79870196c8e42acafade72d5d5a6d59291253ceb133610fb3565b8061069657506106956000801b33610fb3565b5b61069f57600080fd5b6000600760008473ffffffffffffffffffffffffffffffffffffffff1673ffffffffffffffffffffffffffffffffffffffff168152602001908152602001600020541415610722576040517f08c379a000000000000000000000000000000000000000000000000000000000815260040161071990612d44565b60405180910390fd5b60006001600760008573ffffffffffffffffffffffffffffffffffffffff1673ffffffffffffffffffffffffffffffffffffffff168152602001908152602001600020546107709190613026565b905060005b6006805490508110156108f55760066001836107919190612f76565b815481106107c8577f4e487b7100000000000000000000000000000000000000000000000000000000600052603260045260246000fd5b9060005260206000200160009054906101000a900473ffffffffffffffffffffffffffffffffffffffff166006838154811061082d577f4e487b7100000000000000000000000000000000000000000000000000000000600052603260045260246000fd5b9060005260206000200160006101000a81548173ffffffffffffffffffffffffffffffffffffffff021916908373ffffffffffffffffffffffffffffffffffffffff16021790555060068054806108ad577f4e487b7100000000000000000000000000000000000000000000000000000000600052603160045260246000fd5b6001900381819060005260206000200160006101000a81549073ffffffffffffffffffffffffffffffffffffffff0219169055905580806108ed906131a0565b915050610775565b506000600760008573ffffffffffffffffffffffffffffffffffffffff1673ffffffffffffffffffffffffffffffffffffffff168152602001908152602001600020819055506001915050919050565b600060016000838152602001908152602001600020600101549050919050565b6109726000801b33610fb3565b6109b1576040517f08c379a00000000000000000000000000000000000000000000000000000000081526004016109a890612d84565b60405180910390fd5b6109db7f71840dc4906352362b0cdaf79870196c8e42acafade72d5d5a6d59291253ceb182611b08565b50565b6060600a805480602002602001604051908101604052809291908181526020016000905b82821015610b4a57838290600052602060002090600502016040518060a0016040529081600082015481526020016001820160009054906101000a900473ffffffffffffffffffffffffffffffffffffffff1673ffffffffffffffffffffffffffffffffffffffff1673ffffffffffffffffffffffffffffffffffffffff1681526020016002820160009054906101000a900473ffffffffffffffffffffffffffffffffffffffff1673ffffffffffffffffffffffffffffffffffffffff1673ffffffffffffffffffffffffffffffffffffffff1681526020016003820160009054906101000a900473ffffffffffffffffffffffffffffffffffffffff1673ffffffffffffffffffffffffffffffffffffffff1673ffffffffffffffffffffffffffffffffffffffff16815260200160048201548152505081526020019060010190610a02565b50505050905090565b610b5c82610945565b610b6d81610b68611be8565b611bf0565b610b778383611b08565b505050565b6000610ba87f71840dc4906352362b0cdaf79870196c8e42acafade72d5d5a6d59291253ceb133610fb3565b80610bbc5750610bbb6000801b33610fb3565b5b610bc557600080fd5b6000600860009054906101000a900473ffffffffffffffffffffffffffffffffffffffff1673ffffffffffffffffffffffffffffffffffffffff16637601f7828686866000806040518663ffffffff1660e01b8152600401610c2b959493929190612c15565b602060405180830381600087803b158015610c4557600080fd5b505af1158015610c59573d6000803e3d6000fd5b505050506040513d601f19601f82011682018060405250810190610c7d9190612508565b9050809150509392505050565b610c92611be8565b73ffffffffffffffffffffffffffffffffffffffff168173ffffffffffffffffffffffffffffffffffffffff1614610cff576040517f08c379a0000000000000000000000000000000000000000000000000000000008152600401610cf690612da4565b60405180910390fd5b610d098282611c8d565b5050565b610d15611be8565b73ffffffffffffffffffffffffffffffffffffffff16610d33610f8a565b73ffffffffffffffffffffffffffffffffffffffff1614610d89576040517f08c379a0000000000000000000000000000000000000000000000000000000008152600401610d8090612d64565b60405180910390fd5b80600360006101000a81548173ffffffffffffffffffffffffffffffffffffffff021916908373ffffffffffffffffffffffffffffffffffffffff16021790555050565b60045481565b610de06000801b33610fb3565b610de957600080fd5b610e137f71840dc4906352362b0cdaf79870196c8e42acafade72d5d5a6d59291253ceb182610fb3565b610e52576040517f08c379a0000000000000000000000000000000000000000000000000000000008152600401610e4990612d24565b60405180910390fd5b610e7c7f71840dc4906352362b0cdaf79870196c8e42acafade72d5d5a6d59291253ceb182611c8d565b50565b60068181548110610e8f57600080fd5b906000526020600020016000915054906101000a900473ffffffffffffffffffffffffffffffffffffffff1681565b610ec6611be8565b73ffffffffffffffffffffffffffffffffffffffff16610ee4610f8a565b73ffffffffffffffffffffffffffffffffffffffff1614610f3a576040517f08c379a0000000000000000000000000000000000000000000000000000000008152600401610f3190612d64565b60405180910390fd5b610f446000611d6f565b565b80600360006101000a81548173ffffffffffffffffffffffffffffffffffffffff021916908373ffffffffffffffffffffffffffffffffffffffff16021790555050565b60008060009054906101000a900473ffffffffffffffffffffffffffffffffffffffff16905090565b60006001600084815260200190815260200160002060000160008373ffffffffffffffffffffffffffffffffffffffff1673ffffffffffffffffffffffffffffffffffffffff16815260200190815260200160002060009054906101000a900460ff16905092915050565b61102b6000801b33610fb3565b61103457600080fd5b6110636000801b600560009054906101000a900473ffffffffffffffffffffffffffffffffffffffff16611c8d565b33600560006101000a81548173ffffffffffffffffffffffffffffffffffffffff021916908373ffffffffffffffffffffffffffffffffffffffff1602179055506110b16000801b33611b08565b565b6000801b81565b60006110e67f71840dc4906352362b0cdaf79870196c8e42acafade72d5d5a6d59291253ceb133610fb3565b806110fa57506110f96000801b33610fb3565b5b61110357600080fd5b60005b82518110156112da5760006007600085848151811061114e577f4e487b7100000000000000000000000000000000000000000000000000000000600052603260045260246000fd5b602002602001015173ffffffffffffffffffffffffffffffffffffffff1673ffffffffffffffffffffffffffffffffffffffff168152602001908152602001600020541461119b57600080fd5b6000600680549050905080600760008685815181106111e3577f4e487b7100000000000000000000000000000000000000000000000000000000600052603260045260246000fd5b602002602001015173ffffffffffffffffffffffffffffffffffffffff1673ffffffffffffffffffffffffffffffffffffffff168152602001908152602001600020819055506006848381518110611264577f4e487b7100000000000000000000000000000000000000000000000000000000600052603260045260246000fd5b60200260200101519080600181540180825580915050600190039060005260206000200160009091909190916101000a81548173ffffffffffffffffffffffffffffffffffffffff021916908373ffffffffffffffffffffffffffffffffffffffff160217905550818060010192505050611106565b5060019050919050565b600a81815481106112f457600080fd5b90600052602060002090600502016000915090508060000154908060010160009054906101000a900473ffffffffffffffffffffffffffffffffffffffff16908060020160009054906101000a900473ffffffffffffffffffffffffffffffffffffffff16908060030160009054906101000a900473ffffffffffffffffffffffffffffffffffffffff16908060040154905085565b600360009054906101000a900473ffffffffffffffffffffffffffffffffffffffff1681565b600281815481106113c057600080fd5b906000526020600020016000915054906101000a900473ffffffffffffffffffffffffffffffffffffffff1681565b600560009054906101000a900473ffffffffffffffffffffffffffffffffffffffff1681565b60006114417f71840dc4906352362b0cdaf79870196c8e42acafade72d5d5a6d59291253ceb133610fb3565b8061145557506114546000801b33610fb3565b5b61145e57600080fd5b6000600760008473ffffffffffffffffffffffffffffffffffffffff1673ffffffffffffffffffffffffffffffffffffffff16815260200190815260200160002054146114aa57600080fd5b6000600680549050905080600760008573ffffffffffffffffffffffffffffffffffffffff1673ffffffffffffffffffffffffffffffffffffffff168152602001908152602001600020819055506006839080600181540180825580915050600190039060005260206000200160009091909190916101000a81548173ffffffffffffffffffffffffffffffffffffffff021916908373ffffffffffffffffffffffffffffffffffffffff1602179055506001915050919050565b61156e82610945565b61157f8161157a611be8565b611bf0565b6115898383611c8d565b505050565b6115966122fb565b600b60008381526020019081526020016000206040518060a0016040529081600082015481526020016001820160009054906101000a900473ffffffffffffffffffffffffffffffffffffffff1673ffffffffffffffffffffffffffffffffffffffff1673ffffffffffffffffffffffffffffffffffffffff1681526020016002820160009054906101000a900473ffffffffffffffffffffffffffffffffffffffff1673ffffffffffffffffffffffffffffffffffffffff1673ffffffffffffffffffffffffffffffffffffffff1681526020016003820160009054906101000a900473ffffffffffffffffffffffffffffffffffffffff1673ffffffffffffffffffffffffffffffffffffffff1673ffffffffffffffffffffffffffffffffffffffff1681526020016004820154815250509050919050565b6116d9611be8565b73ffffffffffffffffffffffffffffffffffffffff166116f7610f8a565b73ffffffffffffffffffffffffffffffffffffffff161461174d576040517f08c379a000000000000000000000000000000000000000000000000000000000815260040161174490612d64565b60405180910390fd5b600073ffffffffffffffffffffffffffffffffffffffff168173ffffffffffffffffffffffffffffffffffffffff1614156117bd576040517f08c379a00000000000000000000000000000000000000000000000000000000081526004016117b490612d04565b60405180910390fd5b6117c681611d6f565b50565b60006117f57f71840dc4906352362b0cdaf79870196c8e42acafade72d5d5a6d59291253ceb133610fb3565b8061180957506118086000801b33610fb3565b5b61181257600080fd5b60006118218784888888611e33565b905061182b6122fb565b81816020019073ffffffffffffffffffffffffffffffffffffffff16908173ffffffffffffffffffffffffffffffffffffffff1681525050600a8054905081600001818152505087816040019073ffffffffffffffffffffffffffffffffffffffff16908173ffffffffffffffffffffffffffffffffffffffff168152505087816060019073ffffffffffffffffffffffffffffffffffffffff16908173ffffffffffffffffffffffffffffffffffffffff16815250506101c8816080018181525050600a8190806001815401808255809150506001900390600052602060002090600502016000909190919091506000820151816000015560208201518160010160006101000a81548173ffffffffffffffffffffffffffffffffffffffff021916908373ffffffffffffffffffffffffffffffffffffffff16021790555060408201518160020160006101000a81548173ffffffffffffffffffffffffffffffffffffffff021916908373ffffffffffffffffffffffffffffffffffffffff16021790555060608201518160030160006101000a81548173ffffffffffffffffffffffffffffffffffffffff021916908373ffffffffffffffffffffffffffffffffffffffff160217905550608082015181600401555050819250505095945050505050565b611a3d7f71840dc4906352362b0cdaf79870196c8e42acafade72d5d5a6d59291253ceb133610fb3565b80611a515750611a506000801b33610fb3565b5b611a5a57600080fd5b80600860006101000a81548173ffffffffffffffffffffffffffffffffffffffff021916908373ffffffffffffffffffffffffffffffffffffffff16021790555050565b60007f01ffc9a7000000000000000000000000000000000000000000000000000000007bffffffffffffffffffffffffffffffffffffffffffffffffffffffff1916827bffffffffffffffffffffffffffffffffffffffffffffffffffffffff1916149050919050565b611b128282610fb3565b611be457600180600084815260200190815260200160002060000160008373ffffffffffffffffffffffffffffffffffffffff1673ffffffffffffffffffffffffffffffffffffffff16815260200190815260200160002060006101000a81548160ff021916908315150217905550611b89611be8565b73ffffffffffffffffffffffffffffffffffffffff168173ffffffffffffffffffffffffffffffffffffffff16837f2f8788117e7eff1d82e926ec794901d17c78024a50270940304540a733656f0d60405160405180910390a45b5050565b600033905090565b611bfa8282610fb3565b611c8957611c1f8173ffffffffffffffffffffffffffffffffffffffff166014611f97565b611c2d8360001c6020611f97565b604051602001611c3e929190612b6d565b6040516020818303038152906040526040517f08c379a0000000000000000000000000000000000000000000000000000000008152600401611c809190612cc2565b60405180910390fd5b5050565b611c978282610fb3565b15611d6b5760006001600084815260200190815260200160002060000160008373ffffffffffffffffffffffffffffffffffffffff1673ffffffffffffffffffffffffffffffffffffffff16815260200190815260200160002060006101000a81548160ff021916908315150217905550611d10611be8565b73ffffffffffffffffffffffffffffffffffffffff168173ffffffffffffffffffffffffffffffffffffffff16837ff6391f5c32d9c69d2a47ea670b442974b53935d1edc7fd64eb21e047a839171b60405160405180910390a45b5050565b60008060009054906101000a900473ffffffffffffffffffffffffffffffffffffffff169050816000806101000a81548173ffffffffffffffffffffffffffffffffffffffff021916908373ffffffffffffffffffffffffffffffffffffffff1602179055508173ffffffffffffffffffffffffffffffffffffffff168173ffffffffffffffffffffffffffffffffffffffff167f8be0079c531659141344cd1fd0a4f28419497f9722a3daafe3b4186f6b6457e060405160405180910390a35050565b6000611e3d611be8565b73ffffffffffffffffffffffffffffffffffffffff16611e5b610f8a565b73ffffffffffffffffffffffffffffffffffffffff1614611eb1576040517f08c379a0000000000000000000000000000000000000000000000000000000008152600401611ea890612d64565b60405180910390fd5b6000611ede600360009054906101000a900473ffffffffffffffffffffffffffffffffffffffff16612291565b90508073ffffffffffffffffffffffffffffffffffffffff16639fb6cc1388888888886040518663ffffffff1660e01b8152600401611f21959493929190612bc2565b600060405180830381600087803b158015611f3b57600080fd5b505af1158015611f4f573d6000803e3d6000fd5b505050507f72887f37d27f71be34bd562a96863c9385ae0856c548ef3c183101ef9a42993881604051611f829190612ba7565b60405180910390a18091505095945050505050565b606060006002836002611faa9190612fcc565b611fb49190612f76565b67ffffffffffffffff811115611ff3577f4e487b7100000000000000000000000000000000000000000000000000000000600052604160045260246000fd5b6040519080825280601f01601f1916602001820160405280156120255781602001600182028036833780820191505090505b5090507f300000000000000000000000000000000000000000000000000000000000000081600081518110612083577f4e487b7100000000000000000000000000000000000000000000000000000000600052603260045260246000fd5b60200101907effffffffffffffffffffffffffffffffffffffffffffffffffffffffffffff1916908160001a9053507f78000000000000000000000000000000000000000000000000000000000000008160018151811061210d577f4e487b7100000000000000000000000000000000000000000000000000000000600052603260045260246000fd5b60200101907effffffffffffffffffffffffffffffffffffffffffffffffffffffffffffff1916908160001a9053506000600184600261214d9190612fcc565b6121579190612f76565b90505b6001811115612243577f3031323334353637383961626364656600000000000000000000000000000000600f8616601081106121bf577f4e487b7100000000000000000000000000000000000000000000000000000000600052603260045260246000fd5b1a60f81b8282815181106121fc577f4e487b7100000000000000000000000000000000000000000000000000000000600052603260045260246000fd5b60200101907effffffffffffffffffffffffffffffffffffffffffffffffffffffffffffff1916908160001a905350600485901c94508061223c90613145565b905061215a565b5060008414612287576040517f08c379a000000000000000000000000000000000000000000000000000000000815260040161227e90612ce4565b60405180910390fd5b8091505092915050565b6000808260601b90506040517f3d602d80600a3d3981f3363d3d373d3d3d363d7300000000000000000000000081528160148201527f5af43d82803e903d91602b57fd5bf3000000000000000000000000000000000060288201526037816000f092505050919050565b6040518060a0016040528060008152602001600073ffffffffffffffffffffffffffffffffffffffff168152602001600073ffffffffffffffffffffffffffffffffffffffff168152602001600073ffffffffffffffffffffffffffffffffffffffff168152602001600081525090565b600061237f61237a84612e72565b612e4d565b9050808382526020820190508285602086028201111561239e57600080fd5b60005b858110156123ce57816123b488826123d8565b8452602084019350602083019250506001810190506123a1565b5050509392505050565b6000813590506123e781613415565b92915050565b6000815190506123fc81613415565b92915050565b600082601f83011261241357600080fd5b813561242384826020860161236c565b91505092915050565b60008083601f84011261243e57600080fd5b8235905067ffffffffffffffff81111561245757600080fd5b60208301915083602082028301111561246f57600080fd5b9250929050565b6000813590506124858161342c565b92915050565b60008135905061249a81613443565b92915050565b6000813590506124af8161345a565b92915050565b6000813590506124c481613471565b92915050565b6000813590506124d981613488565b92915050565b6000602082840312156124f157600080fd5b60006124ff848285016123d8565b91505092915050565b60006020828403121561251a57600080fd5b6000612528848285016123ed565b91505092915050565b600080600080600060a0868803121561254957600080fd5b6000612557888289016123d8565b9550506020612568888289016124a0565b9450506040612579888289016124a0565b935050606061258a888289016124a0565b925050608061259b888289016124ca565b9150509295509295909350565b6000602082840312156125ba57600080fd5b600082013567ffffffffffffffff8111156125d457600080fd5b6125e084828501612402565b91505092915050565b6000806000604084860312156125fe57600080fd5b600084013567ffffffffffffffff81111561261857600080fd5b61262486828701612402565b935050602084013567ffffffffffffffff81111561264157600080fd5b61264d8682870161242c565b92509250509250925092565b60006020828403121561266b57600080fd5b600061267984828501612476565b91505092915050565b6000806040838503121561269557600080fd5b60006126a385828601612476565b92505060206126b4858286016123d8565b9150509250929050565b6000602082840312156126d057600080fd5b60006126de8482850161248b565b91505092915050565b6000602082840312156126f957600080fd5b6000612707848285016124a0565b91505092915050565b600061271c8383612758565b60208301905092915050565b60006127348383612a61565b60a08301905092915050565b600061274c8383612b4f565b60208301905092915050565b6127618161305a565b82525050565b6127708161305a565b82525050565b600061278182612ec8565b61278b8185612f10565b935061279683612e9e565b8060005b838110156127c75781516127ae8882612710565b97506127b983612ee9565b92505060018101905061279a565b5085935050505092915050565b60006127df82612ed3565b6127e98185612f21565b93506127f483612eae565b8060005b8381101561282557815161280c8882612728565b975061281783612ef6565b9250506001810190506127f8565b5085935050505092915050565b600061283e8385612f32565b935061284982612ebe565b8060005b858110156128825761285f8284612f5f565b6128698882612740565b975061287483612f03565b92505060018101905061284d565b5085925050509392505050565b6128988161306c565b82525050565b6128a781613078565b82525050565b6128b681613100565b82525050565b60006128c782612ede565b6128d18185612f43565b93506128e1818560208601613112565b6128ea81613247565b840191505092915050565b600061290082612ede565b61290a8185612f54565b935061291a818560208601613112565b80840191505092915050565b6000612933602083612f43565b915061293e82613258565b602082019050919050565b6000612956602683612f43565b915061296182613281565b604082019050919050565b6000612979601f83612f43565b9150612984826132d0565b602082019050919050565b600061299c601883612f43565b91506129a7826132f9565b602082019050919050565b60006129bf602083612f43565b91506129ca82613322565b602082019050919050565b60006129e2601a83612f43565b91506129ed8261334b565b602082019050919050565b6000612a05601783612f54565b9150612a1082613374565b601782019050919050565b6000612a28601183612f54565b9150612a338261339d565b601182019050919050565b6000612a4b602f83612f43565b9150612a56826133c6565b604082019050919050565b60a082016000820151612a776000850182612b31565b506020820151612a8a6020850182612758565b506040820151612a9d6040850182612758565b506060820151612ab06060850182612758565b506080820151612ac36080850182612b31565b50505050565b60a082016000820151612adf6000850182612b31565b506020820151612af26020850182612758565b506040820151612b056040850182612758565b506060820151612b186060850182612758565b506080820151612b2b6080850182612b31565b50505050565b612b3a816130ce565b82525050565b612b49816130ce565b82525050565b612b58816130d8565b82525050565b612b67816130e8565b82525050565b6000612b78826129f8565b9150612b8482856128f5565b9150612b8f82612a1b565b9150612b9b82846128f5565b91508190509392505050565b6000602082019050612bbc6000830184612767565b92915050565b600060a082019050612bd76000830188612767565b612be46020830187612b5e565b612bf16040830186612b40565b612bfe6060830185612b40565b612c0b6080830184612b40565b9695505050505050565b60006080820190508181036000830152612c2f8188612776565b90508181036020830152612c44818688612832565b9050612c5360408301856128ad565b612c606060830184612767565b9695505050505050565b60006020820190508181036000830152612c8481846127d4565b905092915050565b6000602082019050612ca1600083018461288f565b92915050565b6000602082019050612cbc600083018461289e565b92915050565b60006020820190508181036000830152612cdc81846128bc565b905092915050565b60006020820190508181036000830152612cfd81612926565b9050919050565b60006020820190508181036000830152612d1d81612949565b9050919050565b60006020820190508181036000830152612d3d8161296c565b9050919050565b60006020820190508181036000830152612d5d8161298f565b9050919050565b60006020820190508181036000830152612d7d816129b2565b9050919050565b60006020820190508181036000830152612d9d816129d5565b9050919050565b60006020820190508181036000830152612dbd81612a3e565b9050919050565b600060a082019050612dd96000830184612ac9565b92915050565b6000602082019050612df46000830184612b40565b92915050565b600060a082019050612e0f6000830188612b40565b612e1c6020830187612767565b612e296040830186612767565b612e366060830185612767565b612e436080830184612b40565b9695505050505050565b6000612e57612e68565b9050612e63828261316f565b919050565b6000604051905090565b600067ffffffffffffffff821115612e8d57612e8c613218565b5b602082029050602081019050919050565b6000819050602082019050919050565b6000819050602082019050919050565b6000819050919050565b600081519050919050565b600081519050919050565b600081519050919050565b6000602082019050919050565b6000602082019050919050565b6000602082019050919050565b600082825260208201905092915050565b600082825260208201905092915050565b600082825260208201905092915050565b600082825260208201905092915050565b600081905092915050565b6000612f6e60208401846124b5565b905092915050565b6000612f81826130ce565b9150612f8c836130ce565b9250827fffffffffffffffffffffffffffffffffffffffffffffffffffffffffffffffff03821115612fc157612fc06131e9565b5b828201905092915050565b6000612fd7826130ce565b9150612fe2836130ce565b9250817fffffffffffffffffffffffffffffffffffffffffffffffffffffffffffffffff048311821515161561301b5761301a6131e9565b5b828202905092915050565b6000613031826130ce565b915061303c836130ce565b92508282101561304f5761304e6131e9565b5b828203905092915050565b6000613065826130ae565b9050919050565b60008115159050919050565b6000819050919050565b60007fffffffff0000000000000000000000000000000000000000000000000000000082169050919050565b600073ffffffffffffffffffffffffffffffffffffffff82169050919050565b6000819050919050565b600063ffffffff82169050919050565b60006bffffffffffffffffffffffff82169050919050565b600061310b826130d8565b9050919050565b60005b83811015613130578082015181840152602081019050613115565b8381111561313f576000848401525b50505050565b6000613150826130ce565b91506000821415613164576131636131e9565b5b600182039050919050565b61317882613247565b810181811067ffffffffffffffff8211171561319757613196613218565b5b80604052505050565b60006131ab826130ce565b91507fffffffffffffffffffffffffffffffffffffffffffffffffffffffffffffffff8214156131de576131dd6131e9565b5b600182019050919050565b7f4e487b7100000000000000000000000000000000000000000000000000000000600052601160045260246000fd5b7f4e487b7100000000000000000000000000000000000000000000000000000000600052604160045260246000fd5b6000601f19601f8301169050919050565b7f537472696e67733a20686578206c656e67746820696e73756666696369656e74600082015250565b7f4f776e61626c653a206e6577206f776e657220697320746865207a65726f206160008201527f6464726573730000000000000000000000000000000000000000000000000000602082015250565b7f616464726573737320646f6573206e6f7420686176652074686520726f6c6500600082015250565b7f6e6f742061206d656d626572206f66207468652062616e640000000000000000600082015250565b7f4f776e61626c653a2063616c6c6572206973206e6f7420746865206f776e6572600082015250565b7f6f6e6c792041646d696e2063616e206772616e7420726f6c6573000000000000600082015250565b7f416363657373436f6e74726f6c3a206163636f756e7420000000000000000000600082015250565b7f206973206d697373696e6720726f6c6520000000000000000000000000000000600082015250565b7f416363657373436f6e74726f6c3a2063616e206f6e6c792072656e6f756e636560008201527f20726f6c657320666f722073656c660000000000000000000000000000000000602082015250565b61341e8161305a565b811461342957600080fd5b50565b61343581613078565b811461344057600080fd5b50565b61344c81613082565b811461345757600080fd5b50565b613463816130ce565b811461346e57600080fd5b50565b61347a816130d8565b811461348557600080fd5b50565b613491816130e8565b811461349c57600080fd5b5056fea26469706673582212204da9c5bff0c5bea06894959714198fd3c914ff31310c5bd2c37471ceb933597464736f6c63430008040033",
    "linkReferences": {},
    "deployedLinkReferences": {}
}